{
  "contractName": "LandRegistry",
  "abi": [
    {
      "anonymous": false,
      "inputs": [
        {
          "indexed": false,
          "internalType": "uint256",
          "name": "id",
          "type": "uint256"
        },
        {
          "indexed": false,
          "internalType": "string",
          "name": "approvalDetails",
          "type": "string"
        }
      ],
      "name": "BuildingApproved",
      "type": "event"
    },
    {
      "anonymous": false,
      "inputs": [
        {
          "indexed": false,
          "internalType": "uint256",
          "name": "id",
          "type": "uint256"
        },
        {
          "indexed": false,
          "internalType": "string",
          "name": "owner",
          "type": "string"
        },
        {
          "indexed": false,
          "internalType": "string",
          "name": "location",
          "type": "string"
        }
      ],
      "name": "LandRegistered",
      "type": "event"
    },
    {
      "anonymous": false,
      "inputs": [
        {
          "indexed": false,
          "internalType": "uint256",
          "name": "id",
          "type": "uint256"
        },
        {
          "indexed": false,
          "internalType": "string",
          "name": "oldOwner",
          "type": "string"
        },
        {
          "indexed": false,
          "internalType": "string",
          "name": "newOwner",
          "type": "string"
        }
      ],
      "name": "OwnershipTransferred",
      "type": "event"
    },
    {
      "inputs": [
        {
          "internalType": "uint256",
          "name": "",
          "type": "uint256"
        }
      ],
      "name": "lands",
      "outputs": [
        {
          "internalType": "uint256",
          "name": "id",
          "type": "uint256"
        },
        {
          "internalType": "string",
          "name": "owner",
          "type": "string"
        },
        {
          "internalType": "string",
          "name": "location",
          "type": "string"
        },
        {
          "internalType": "uint256",
          "name": "area",
          "type": "uint256"
        },
        {
          "internalType": "bool",
          "name": "hasBuilding",
          "type": "bool"
        },
        {
          "internalType": "string",
          "name": "buildingApproval",
          "type": "string"
        }
      ],
      "stateMutability": "view",
      "type": "function"
    },
    {
      "inputs": [
        {
          "internalType": "uint256",
          "name": "_id",
          "type": "uint256"
        },
        {
          "internalType": "string",
          "name": "_owner",
          "type": "string"
        },
        {
          "internalType": "string",
          "name": "_location",
          "type": "string"
        },
        {
          "internalType": "uint256",
          "name": "_area",
          "type": "uint256"
        }
      ],
      "name": "registerLand",
      "outputs": [],
      "stateMutability": "nonpayable",
      "type": "function"
    },
    {
      "inputs": [
        {
          "internalType": "uint256",
          "name": "_id",
          "type": "uint256"
        },
        {
          "internalType": "string",
          "name": "_newOwner",
          "type": "string"
        }
      ],
      "name": "transferLandOwnership",
      "outputs": [],
      "stateMutability": "nonpayable",
      "type": "function"
    },
    {
      "inputs": [
        {
          "internalType": "uint256",
          "name": "_id",
          "type": "uint256"
        },
        {
          "internalType": "string",
          "name": "_approvalDetails",
          "type": "string"
        }
      ],
      "name": "approveBuilding",
      "outputs": [],
      "stateMutability": "nonpayable",
      "type": "function"
    },
    {
      "inputs": [
        {
          "internalType": "uint256",
          "name": "_id",
          "type": "uint256"
        }
      ],
      "name": "getLand",
      "outputs": [
        {
          "internalType": "string",
          "name": "owner",
          "type": "string"
        },
        {
          "internalType": "string",
          "name": "location",
          "type": "string"
        },
        {
          "internalType": "uint256",
          "name": "area",
          "type": "uint256"
        },
        {
          "internalType": "bool",
          "name": "hasBuilding",
          "type": "bool"
        },
        {
          "internalType": "string",
          "name": "buildingApproval",
          "type": "string"
        }
      ],
      "stateMutability": "view",
      "type": "function"
    }
  ],
  "bytecode": "0x608060405234801561001057600080fd5b506110f5806100206000396000f3fe608060405234801561001057600080fd5b50600436106100575760003560e01c80633c086f741461005c578063b2eb26b014610078578063cde6d0f814610094578063e261f1e5146100b0578063f02dd53f146100e5575b600080fd5b61007660048036038101906100719190610be1565b610119565b005b610092600480360381019061008d9190610be1565b6102d7565b005b6100ae60048036038101906100a99190610c35565b6104b8565b005b6100ca60048036038101906100c59190610bb8565b6105f0565b6040516100dc96959493929190610ebc565b60405180910390f35b6100ff60048036038101906100fa9190610bb8565b6107e1565b604051610110959493929190610d9f565b60405180910390f35b6000805490508210610160576040517f08c379a000000000000000000000000000000000000000000000000000000000815260040161015790610e07565b60405180910390fd5b600080838154811061019b577f4e487b7100000000000000000000000000000000000000000000000000000000600052603260045260246000fd5b906000526020600020906006020160010180546101b790611007565b80601f01602080910402602001604051908101604052809291908181526020018280546101e390611007565b80156102305780601f1061020557610100808354040283529160200191610230565b820191906000526020600020905b81548152906001019060200180831161021357829003601f168201915b505050505090508160008481548110610272577f4e487b7100000000000000000000000000000000000000000000000000000000600052603260045260246000fd5b90600052602060002090600602016001019080519060200190610296929190610a98565b507fd5643b12fa251d97bedb00f0982a1ba1909b7b3786f872452317daa1c302dfcc8382846040516102ca93929190610e77565b60405180910390a1505050565b600080549050821061031e576040517f08c379a000000000000000000000000000000000000000000000000000000000815260040161031590610e07565b60405180910390fd5b60008281548110610358577f4e487b7100000000000000000000000000000000000000000000000000000000600052603260045260246000fd5b906000526020600020906006020160040160009054906101000a900460ff16156103b7576040517f08c379a00000000000000000000000000000000000000000000000000000000081526004016103ae90610e27565b60405180910390fd5b6001600083815481106103f3577f4e487b7100000000000000000000000000000000000000000000000000000000600052603260045260246000fd5b906000526020600020906006020160040160006101000a81548160ff0219169083151502179055508060008381548110610456577f4e487b7100000000000000000000000000000000000000000000000000000000600052603260045260246000fd5b9060005260206000209060060201600501908051906020019061047a929190610a98565b507fec377ad03934d8463cf468593def5297d333dc94c8cbfb02774f9b5df5b4e4d882826040516104ac929190610e47565b60405180910390a15050565b60006040518060c00160405280868152602001858152602001848152602001838152602001600015158152602001604051806020016040528060008152508152509080600181540180825580915050600190039060005260206000209060060201600090919091909150600082015181600001556020820151816001019080519060200190610548929190610a98565b506040820151816002019080519060200190610565929190610a98565b506060820151816003015560808201518160040160006101000a81548160ff02191690831515021790555060a08201518160050190805190602001906105ac929190610a98565b5050507f85b03256bc2903c3c88798e89c93514a35392405822e40bceed3495f1b367b148484846040516105e293929190610e77565b60405180910390a150505050565b6000818154811061060057600080fd5b906000526020600020906006020160009150905080600001549080600101805461062990611007565b80601f016020809104026020016040519081016040528092919081815260200182805461065590611007565b80156106a25780601f10610677576101008083540402835291602001916106a2565b820191906000526020600020905b81548152906001019060200180831161068557829003601f168201915b5050505050908060020180546106b790611007565b80601f01602080910402602001604051908101604052809291908181526020018280546106e390611007565b80156107305780601f1061070557610100808354040283529160200191610730565b820191906000526020600020905b81548152906001019060200180831161071357829003601f168201915b5050505050908060030154908060040160009054906101000a900460ff169080600501805461075e90611007565b80601f016020809104026020016040519081016040528092919081815260200182805461078a90611007565b80156107d75780601f106107ac576101008083540402835291602001916107d7565b820191906000526020600020905b8154815290600101906020018083116107ba57829003601f168201915b5050505050905086565b60608060008060606000805490508610610830576040517f08c379a000000000000000000000000000000000000000000000000000000000815260040161082790610e07565b60405180910390fd5b600080878154811061086b577f4e487b7100000000000000000000000000000000000000000000000000000000600052603260045260246000fd5b90600052602060002090600602016040518060c00160405290816000820154815260200160018201805461089e90611007565b80601f01602080910402602001604051908101604052809291908181526020018280546108ca90611007565b80156109175780601f106108ec57610100808354040283529160200191610917565b820191906000526020600020905b8154815290600101906020018083116108fa57829003601f168201915b5050505050815260200160028201805461093090611007565b80601f016020809104026020016040519081016040528092919081815260200182805461095c90611007565b80156109a95780601f1061097e576101008083540402835291602001916109a9565b820191906000526020600020905b81548152906001019060200180831161098c57829003601f168201915b50505050508152602001600382015481526020016004820160009054906101000a900460ff161515151581526020016005820180546109e790611007565b80601f0160208091040260200160405190810160405280929190818152602001828054610a1390611007565b8015610a605780601f10610a3557610100808354040283529160200191610a60565b820191906000526020600020905b815481529060010190602001808311610a4357829003601f168201915b505050505081525050905080602001518160400151826060015183608001518460a00151955095509550955095505091939590929450565b828054610aa490611007565b90600052602060002090601f016020900481019282610ac65760008555610b0d565b82601f10610adf57805160ff1916838001178555610b0d565b82800160010185558215610b0d579182015b82811115610b0c578251825591602001919060010190610af1565b5b509050610b1a9190610b1e565b5090565b5b80821115610b37576000816000905550600101610b1f565b5090565b6000610b4e610b4984610f63565b610f32565b905082815260208101848484011115610b6657600080fd5b610b71848285610fc5565b509392505050565b600082601f830112610b8a57600080fd5b8135610b9a848260208601610b3b565b91505092915050565b600081359050610bb2816110a8565b92915050565b600060208284031215610bca57600080fd5b6000610bd884828501610ba3565b91505092915050565b60008060408385031215610bf457600080fd5b6000610c0285828601610ba3565b925050602083013567ffffffffffffffff811115610c1f57600080fd5b610c2b85828601610b79565b9150509250929050565b60008060008060808587031215610c4b57600080fd5b6000610c5987828801610ba3565b945050602085013567ffffffffffffffff811115610c7657600080fd5b610c8287828801610b79565b935050604085013567ffffffffffffffff811115610c9f57600080fd5b610cab87828801610b79565b9250506060610cbc87828801610ba3565b91505092959194509250565b610cd181610faf565b82525050565b6000610ce282610f93565b610cec8185610f9e565b9350610cfc818560208601610fd4565b610d0581611097565b840191505092915050565b6000610d1d601383610f9e565b91507f4c616e6420646f6573206e6f74206578697374000000000000000000000000006000830152602082019050919050565b6000610d5d601783610f9e565b91507f4275696c64696e6720616c7265616479206578697374730000000000000000006000830152602082019050919050565b610d9981610fbb565b82525050565b600060a0820190508181036000830152610db98188610cd7565b90508181036020830152610dcd8187610cd7565b9050610ddc6040830186610d90565b610de96060830185610cc8565b8181036080830152610dfb8184610cd7565b90509695505050505050565b60006020820190508181036000830152610e2081610d10565b9050919050565b60006020820190508181036000830152610e4081610d50565b9050919050565b6000604082019050610e5c6000830185610d90565b8181036020830152610e6e8184610cd7565b90509392505050565b6000606082019050610e8c6000830186610d90565b8181036020830152610e9e8185610cd7565b90508181036040830152610eb28184610cd7565b9050949350505050565b600060c082019050610ed16000830189610d90565b8181036020830152610ee38188610cd7565b90508181036040830152610ef78187610cd7565b9050610f066060830186610d90565b610f136080830185610cc8565b81810360a0830152610f258184610cd7565b9050979650505050505050565b6000604051905081810181811067ffffffffffffffff82111715610f5957610f58611068565b5b8060405250919050565b600067ffffffffffffffff821115610f7e57610f7d611068565b5b601f19601f8301169050602081019050919050565b600081519050919050565b600082825260208201905092915050565b60008115159050919050565b6000819050919050565b82818337600083830152505050565b60005b83811015610ff2578082015181840152602081019050610fd7565b83811115611001576000848401525b50505050565b6000600282049050600182168061101f57607f821691505b6020821081141561103357611032611039565b5b50919050565b7f4e487b7100000000000000000000000000000000000000000000000000000000600052602260045260246000fd5b7f4e487b7100000000000000000000000000000000000000000000000000000000600052604160045260246000fd5b6000601f19601f8301169050919050565b6110b181610fbb565b81146110bc57600080fd5b5056fea2646970667358221220af5238239e8534922e8d51ea9a598a29b2b304711cd21ca922895fc071576dd164736f6c63430008000033",
  "immutableReferences": {},
  "source": "// SPDX-License-Identifier: MIT\npragma solidity ^0.8.0;\n\ncontract LandRegistry {\n    struct Land {\n        uint256 id;\n        string owner;\n        string location;\n        uint256 area;\n        bool hasBuilding;\n        string buildingApproval;\n    }\n\n    Land[] public lands;\n\n    // Event logs (for frontend tracking)\n    event LandRegistered(uint256 id, string owner, string location);\n    event OwnershipTransferred(uint256 id, string oldOwner, string newOwner);\n    event BuildingApproved(uint256 id, string approvalDetails);\n\n    // 1. Register New Land\n    function registerLand(\n        uint256 _id,\n        string memory _owner,\n        string memory _location,\n        uint256 _area\n    ) public {\n        lands.push(Land(_id, _owner, _location, _area, false, \"\"));\n        emit LandRegistered(_id, _owner, _location);\n    }\n\n    // 2. Transfer Land Ownership\n    function transferLandOwnership(\n        uint256 _id,\n        string memory _newOwner\n    ) public {\n        require(_id < lands.length, \"Land does not exist\");\n        string memory oldOwner = lands[_id].owner;\n        lands[_id].owner = _newOwner;\n        emit OwnershipTransferred(_id, oldOwner, _newOwner);\n    }\n\n    // 3. Approve New Building on Land\n    function approveBuilding(\n        uint256 _id,\n        string memory _approvalDetails\n    ) public {\n        require(_id < lands.length, \"Land does not exist\");\n        require(!lands[_id].hasBuilding, \"Building already exists\");\n        \n        lands[_id].hasBuilding = true;\n        lands[_id].buildingApproval = _approvalDetails;\n        emit BuildingApproved(_id, _approvalDetails);\n    }\n\n    // Get Land Details\n    function getLand(uint256 _id) public view returns (\n        string memory owner,\n        string memory location,\n        uint256 area,\n        bool hasBuilding,\n        string memory buildingApproval\n    ) {\n        require(_id < lands.length, \"Land does not exist\");\n        Land memory land = lands[_id];\n        return (\n            land.owner,\n            land.location,\n            land.area,\n            land.hasBuilding,\n            land.buildingApproval\n        );\n    }\n}",
  "sourcePath": "C:\\final Land code\\land\\contracts\\LandRegistry.sol",
  "compiler": {
    "name": "solc",
    "version": "0.8.0+commit.c7dfd78e.Emscripten.clang"
  },
  "schemaVersion": "3.4.16",
  "updatedAt": "2025-08-05T16:24:55.964Z",
  "devdoc": {
    "kind": "dev",
    "methods": {},
    "version": 1
  },
  "userdoc": {
    "kind": "user",
    "methods": {},
    "version": 1
  }
}