{
  "contractName": "LandRegistry",
  "abi": [
    {
      "inputs": [
        {
          "internalType": "uint256",
          "name": "",
          "type": "uint256"
        }
      ],
      "name": "lands",
      "outputs": [
        {
          "internalType": "uint256",
          "name": "id",
          "type": "uint256"
        },
        {
          "internalType": "string",
          "name": "owner",
          "type": "string"
        },
        {
          "internalType": "string",
          "name": "location",
          "type": "string"
        },
        {
          "internalType": "uint256",
          "name": "area",
          "type": "uint256"
        }
      ],
      "stateMutability": "view",
      "type": "function"
    },
    {
      "inputs": [
        {
          "internalType": "uint256",
          "name": "_id",
          "type": "uint256"
        },
        {
          "internalType": "string",
          "name": "_owner",
          "type": "string"
        },
        {
          "internalType": "string",
          "name": "_location",
          "type": "string"
        },
        {
          "internalType": "uint256",
          "name": "_area",
          "type": "uint256"
        }
      ],
      "name": "registerLand",
      "outputs": [],
      "stateMutability": "nonpayable",
      "type": "function"
    }
  ],
  "bytecode": "0x608060405234801561001057600080fd5b50610541806100206000396000f3fe608060405234801561001057600080fd5b50600436106100365760003560e01c8063cde6d0f81461003b578063e261f1e514610050575b600080fd5b61004e6100493660046103c0565b61007c565b005b61006361005e3660046103a8565b610142565b604051610073949392919061047d565b60405180910390f35b6040805160808101825285815260208082018681529282018590526060820184905260008054600181018255908052825160049091027f290decd9548b62a8d60345a988386fc84ba6bc95484008f6362f93160ef3e56381019182559351805193949193610113937f290decd9548b62a8d60345a988386fc84ba6bc95484008f6362f93160ef3e56490930192919091019061028e565b506040820151805161012f91600284019160209091019061028e565b5060608201518160030155505050505050565b6000818154811061015257600080fd5b60009182526020909120600490910201805460018201805491935090610177906104ba565b80601f01602080910402602001604051908101604052809291908181526020018280546101a3906104ba565b80156101f05780601f106101c5576101008083540402835291602001916101f0565b820191906000526020600020905b8154815290600101906020018083116101d357829003601f168201915b505050505090806002018054610205906104ba565b80601f0160208091040260200160405190810160405280929190818152602001828054610231906104ba565b801561027e5780601f106102535761010080835404028352916020019161027e565b820191906000526020600020905b81548152906001019060200180831161026157829003601f168201915b5050505050908060030154905084565b82805461029a906104ba565b90600052602060002090601f0160209004810192826102bc5760008555610302565b82601f106102d557805160ff1916838001178555610302565b82800160010185558215610302579182015b828111156103025782518255916020019190600101906102e7565b5061030e929150610312565b5090565b5b8082111561030e5760008155600101610313565b600082601f830112610337578081fd5b813567ffffffffffffffff80821115610352576103526104f5565b604051601f8301601f191681016020018281118282101715610376576103766104f5565b60405282815284830160200186101561038d578384fd5b82602086016020830137918201602001929092529392505050565b6000602082840312156103b9578081fd5b5035919050565b600080600080608085870312156103d5578283fd5b84359350602085013567ffffffffffffffff808211156103f3578485fd5b6103ff88838901610327565b94506040870135915080821115610414578384fd5b5061042187828801610327565b949793965093946060013593505050565b60008151808452815b818110156104575760208185018101518683018201520161043b565b818111156104685782602083870101525b50601f01601f19169290920160200192915050565b6000858252608060208301526104966080830186610432565b82810360408401526104a88186610432565b91505082606083015295945050505050565b6002810460018216806104ce57607f821691505b602082108114156104ef57634e487b7160e01b600052602260045260246000fd5b50919050565b634e487b7160e01b600052604160045260246000fdfea264697066735822122051cb774d23bf8a6310a118d0425be8b101ef0c0439885b6485f15c55ac6169f864736f6c63430008000033",
  "immutableReferences": {},
  "source": "// SPDX-License-Identifier: MIT\npragma solidity ^0.8.0;\n\ncontract LandRegistry {\n    struct Land {\n        uint256 id;\n        string owner;\n        string location;\n        uint256 area;\n    }\n    \n    Land[] public lands;\n    \n    function registerLand(\n        uint256 _id, \n        string memory _owner,\n        string memory _location,\n        uint256 _area\n    ) public {\n        lands.push(Land(_id, _owner, _location, _area));\n    }\n}",
  "sourcePath": "c:\\final Land code\\FINALLAND\\blockchain\\contracts\\LandRegistry.sol",
  "compiler": {
    "name": "solc",
    "version": "0.8.0+commit.c7dfd78e.Emscripten.clang"
  },
  "schemaVersion": "3.4.16",
  "updatedAt": "2025-08-07T06:27:50.167Z",
  "devdoc": {
    "kind": "dev",
    "methods": {},
    "version": 1
  },
  "userdoc": {
    "kind": "user",
    "methods": {},
    "version": 1
  }
}